:020000040000FA
:020000000528D1
:0800080049288030A3004030BC
:10001000A4002030A5001030A6000830A70004304E
:10002000A8000230A9000130AA002330A2008312E8
:100030000313850183160313051483160317880120
:100040008316031386018312031322088400000819
:1000500086003B20051C2D283428A2032208223CC0
:100060002A30031983002528A20A22082B3C2330BA
:100070000319830025280430A0004120A00B3D284F
:1000800008002930A100000000000000A10B432857
:0A009000080000000B108B1009009F
:043000000034003464
:00000001FF
