:020000040000FA
:020000000528D1
:0800080051288030A3004030B4
:10001000A4002030A5001030A6000830A70004304E
:10002000A8000230A9000130AA002530A2008316E2
:10003000031306148316031387018316031788011D
:100040008312031322088400000887003D208608DD
:10005000061C2B283428A2032208223C0319312035
:1000600022282A30A2000800A20A22082B3C0319E9
:100070003A2022282330A20008000430B000432098
:10008000B00B3F280800F930A0004920A00B4528FC
:100090000800A630A100000000000000A10B4B28C2
:0A00A000080000000B108B1009008F
:043000000034003464
:00000001FF
